:1000000019C020C01FC01EC01DC01CC01BC01AC00C
:1000100019C018C017C016C015C014C013C012C034
:1000200011C010C00FC00EC00DC00CC00BC00AC064
:1000300009C008C011241FBECFEFCDBFDFE3DEBF74
:1000400002D04AC0DDCFCF93DF93CDB7DEB728977C
:10005000CDBFDEBF84E08093010488E0809301047B
:1000600024E038E020930504309305041D821E82AD
:100070001F8218868D819E81AF81B88580349D4016
:10008000A340B105E8F020930604309306041982DA
:100090001A821B821C8289819A81AB81BC81803447
:1000A0009D40A340B105F0F689819A81AB81BC8166
:1000B0000196A11DB11D89839A83AB83BC83EBCFCD
:1000C0008D819E81AF81B8850196A11DB11D8D8363
:0C00D0009E83AF83B887CECFF894FFCF9B
:00000001FF
