:1000000019C020C01FC01EC01DC01CC01BC01AC00C
:1000100019C018C017C016C015C014C013C012C034
:1000200011C010C00FC00EC00DC00CC00BC00AC064
:1000300009C008C011241FBECFEFCDBFDFE3DEBF74
:1000400002D030C0DDCF88E0809302048093130497
:1000500084E08093010480E48093010484E480932D
:1000600006048091080483FFFCCF84E0809305049C
:100070002FE131EA97E0215030409040E1F700C095
:1000800000008093060480E4809305042FE131EAA8
:1000900097E0215030409040E1F700C0000080938D
:0800A0000604FFCFF894FFCF26
:00000001FF
