:100000000C9434000C9449000C9449000C94490061
:100010000C9449000C9449000C9449000C9449003C
:100020000C9449000C9449000C9449000C9449002C
:100030000C9449000C9449000C9449000C9449001C
:100040000C9449000C9449000C9449000C9449000C
:100050000C9449000C9449000C9449000C944900FC
:100060000C9449000C94490011241FBECFEFD8E036
:10007000DEBFCDBF11E0A0E0B1E0EAEAF1E002C0EE
:1000800005900D92AA35B107D9F70E94CE000C94C5
:10009000D3000C940000CF93DF93209A57982198B7
:1000A00080E091E00E94AF00C8EED3E04F9B04C017
:1000B0008AE091E00E94AF008FE99FE00197F1F79D
:1000C00000C00000219791F7289A8AE191E00E94F0
:1000D000AF009FEFE9EFF0E09150E040F040E1F732
:1000E00000C000002898C8E8D3E180E099B1292F2A
:1000F000221F2227221F281739F097FF0DC082E206
:1001000091E00E94AF0081E0199B0CC083E391E075
:10011000DF91CF910C94AF008BE291E00E94AF0091
:1001200080E0F2CFEFE9FFE03197F1F700C0000087
:100130002197E1F680E491E0EBCF9091C00095FF2C
:10014000FCCF8093C60008951092C50088E080938C
:10015000C4008093C10086E08093C2000895CF93CD
:10016000DF93EC018991811105C08AE0DF91CF9185
:100170000C949D000E949D00F5CF80E395E74F9B76
:1001800004C088E491E00C94AF0025E32A95F1F7D0
:1001900000000197A1F781E591E0F5CF0E94A4004E
:0A01A0000E944B00FFCFF894FFCF40
:1001AA004C4F475F5354415254005041325F4849C3
:1001BA0047485F4245464F52450044385F484947E1
:1001CA0048005041325F48494748005041325F4C2D
:1001DA004F57005041365F484947485F454E4400F3
:1001EA0054494D454F5554005044375F4849474894
:0A01FA00005044375F4C4F570000DF
:00000001FF
